{
  "contractName": "Answer",
  "abi": [
    {
      "constant": false,
      "inputs": [
        {
          "name": "_answer",
          "type": "uint256"
        }
      ],
      "name": "setAnswer",
      "outputs": [],
      "payable": false,
      "stateMutability": "nonpayable",
      "type": "function"
    },
    {
      "constant": true,
      "inputs": [],
      "name": "getAnswer",
      "outputs": [
        {
          "name": "",
          "type": "uint256"
        }
      ],
      "payable": false,
      "stateMutability": "view",
      "type": "function"
    }
  ],
  "bytecode": "0x608060405234801561001057600080fd5b5060ec8061001f6000396000f3fe6080604052600436106049576000357c0100000000000000000000000000000000000000000000000000000000900463ffffffff16806385a013e014604e5780639c16667c146085575b600080fd5b348015605957600080fd5b50608360048036036020811015606e57600080fd5b810190808035906020019092919050505060ad565b005b348015609057600080fd5b50609760b7565b6040518082815260200191505060405180910390f35b8060008190555050565b6000805490509056fea165627a7a72305820aa7047a4768dce784429db378fb2e113491185432fb22c54ca0502b3c197c9c70029",
  "source": "// SPDX-License-Identifier: MIT\npragma solidity >=0.4.22 <0.9.0;\n\ncontract Answer {\n  uint256 answer;\n\n  function setAnswer(uint _answer) public {\n    answer = _answer;\n  }\n\n  function getAnswer() public view returns (uint) {\n    return answer;\n  }\n}\n",
  "sourcePath": "/Users/user/Desktop/nft/contracts/Answer.sol",
  "compiler": {
    "name": "solc",
    "version": "0.5.0+commit.1d4f565a.Emscripten.clang"
  },
  "schemaVersion": "3.4.4",
  "updatedAt": "2022-01-14T17:03:48.128Z",
  "devdoc": {
    "methods": {}
  },
  "userdoc": {
    "methods": {}
  }
}