{
  "contractName": "Mortal",
  "abi": [
    {
      "inputs": [],
      "payable": false,
      "stateMutability": "nonpayable",
      "type": "constructor"
    },
    {
      "constant": false,
      "inputs": [],
      "name": "kill",
      "outputs": [],
      "payable": true,
      "stateMutability": "payable",
      "type": "function"
    }
  ],
  "bytecode": "0x608060405234801561001057600080fd5b50336000806101000a81548173ffffffffffffffffffffffffffffffffffffffff021916908373ffffffffffffffffffffffffffffffffffffffff16021790555060e58061005f6000396000f3fe608060405260043610601c5760003560e01c806341c0e1b5146021575b600080fd5b60276029565b005b6000809054906101000a900473ffffffffffffffffffffffffffffffffffffffff1673ffffffffffffffffffffffffffffffffffffffff163373ffffffffffffffffffffffffffffffffffffffff16141560b7576000809054906101000a900473ffffffffffffffffffffffffffffffffffffffff1673ffffffffffffffffffffffffffffffffffffffff16ff5b56fea165627a7a72305820ac83f670ea94b7b53801b16ad2737e92a364ed7b60df242a0d1b65d6c5c58ac80029",
  "source": "pragma solidity 0.5.6;\n\ncontract Mortal {\n    address payable owner;\n\n    constructor () public { owner = msg.sender; }\n\n    function kill() public payable {\n        if(msg.sender == owner) {\n            selfdestruct(owner);\n        }\n    }\n\n}\n\ncontract KlaytnGreeter is Mortal {\n    string greeting;\n\n    constructor (string memory _greeting) public  {\n        greeting = _greeting;\n    }\n    function greet() public view returns (string memory) {\n        return greeting;\n    }\n}",
  "sourcePath": "/Users/user/Desktop/nft/contracts/KlaytnGreeter.sol",
  "compiler": {
    "name": "solc",
    "version": "0.5.6+commit.b259423e.Emscripten.clang"
  },
  "schemaVersion": "3.4.4",
  "updatedAt": "2022-01-14T17:42:40.622Z",
  "devdoc": {
    "methods": {}
  },
  "userdoc": {
    "methods": {}
  }
}